:020000040800F2
:1000000000500020C1010008A9010008AB01000850
:10001000AD010008AF010008B101000800000000B8
:10002000000000000000000000000000B301000814
:10003000B501000800000000B7010008B901000880
:100040000902000809020008090200080902000864
:100050000902000809020008090200080902000854
:100060000902000809020008090200080902000844
:100070000902000809020008090200080902000834
:100080000902000809020008090200080902000824
:100090000902000809020008090200080902000814
:1000A0000902000809020008090200080902000804
:1000B00009020008090200080902000809020008F4
:1000C00009020008090200080902000809020008E4
:1000D00009020008090200080902000809020008D4
:1000E00009020008090200080902000800000000D7
:1000F0000000000000000000000000000000000000
:0C01000000000000000000005FF808F1A3
:10010C0010B5054C237833B9044B13B10448AFF345
:10011C0000800123237010BD0400002000000000AB
:10012C006C02000808B5034B1BB103490348AFF33D
:10013C00008008BD00000000080000206C020008D0
:10014C00144B9A6942F010029A61134A516821F4D7
:10015C0070015160516841F400115160D96941F04E
:10016C000101D9614FF0804341F63F71996240F231
:10017C00E731D962196841F0010119601969C907A1
:10018C00FCD5196921F001011961D16881F4005184
:10019C00D160F3E70010024000100140FEE7FEE7DB
:1001AC00FEE7FEE7FEE770477047704700F028B89F
:1001BC0070470000FFF7FCFF0B480C490C4A00236A
:1001CC0002E0D458C4500433C4188C42F9D3094A01
:1001DC00094C002301E013600432A242FBD300F06F
:1001EC001BF8FFF7ADFF7047000000200400002053
:1001FC008C0200080400002024000020FEE7000010
:10020C00034A044B11681B780B441360704700BF02
:10021C00200000200000002070B500260C4D0D4C75
:10022C00641BA410A64209D100F01AF800260A4D4E
:10023C000A4C641BA410A64205D170BD55F8043BB2
:10024C0098470136EEE755F8043B98470136F2E73C
:10025C008402000884020008840200088802000856
:10026C00F8B500BFF8BC08BC9E467047F8B500BF97
:08027C00F8BC08BC9E46704767
:04028400310100083C
:040288000D0100085C
:04028C00010000006D
:04000005080001C12D
:00000001FF
